:020000040800F2
:1000000000280020E9190008791900087F19000864
:10001000851900088B1900089119000800000000DC
:100020000000000000000000000000009719000818
:10003000A319000800000000AF190008BB19000850
:10004000311A0008311A0008311A0008311A000864
:10005000311A0008311A0008311A0008311A000854
:10006000311A0008311A0008311A0008311A000844
:10007000311A0008311A0008311A0008311A000834
:10008000311A0008311A0008311A0008311A000824
:10009000311A0008311A0008311A0008311A000814
:1000A000311A0008311A0008311A0008311A000804
:1000B000C9190008311A000800000000311A0008B0
:1000C000311A00080000000000000000311A00088A
:1000D00000000000311A0008311A0008000000007A
:1000E000311A0008311A0008311A00080000000017
:1000F0000000000000000000000000000000000000
:0C01000000000000000000005FF808F1A3
:10010C0010B5054C237833B9044B13B10448AFF345
:10011C0000800123237010BD3C0000200000000073
:10012C007830000808B5034B1BB103490348AFF303
:10013C00008008BD0000000040000020783000085E
:10014C0080B400AF064B1B68012B04D1044B00227A
:10015C001A60012300E000231846BD4680BC70479E
:10016C005C00002080B400AF064B1B68012B04D14F
:10017C00044B00221A60012300E000231846BD4600
:10018C0080BC70476000002080B400AF064B1B6839
:10019C00012B04D1044B00221A60012300E0002340
:1001AC001846BD4680BC70476400002080B400AF88
:1001BC00034B01221A6000BFBD4680BC704700BFD4
:1001CC005C00002080B400AF034B01221A6000BF1A
:1001DC00BD4680BC704700BF6000002080B400AFFB
:1001EC00034B01221A6000BFBD4680BC704700BFA4
:1001FC006400002080B500AF234B1B68234A1360BA
:10020C00234B1B68204A13604FF40051214801F026
:10021C00F5FE03461A461E4B1A601B4B1A681C4B04
:10022C001B689A422DD1184B1A68184B1B689A42BE
:10023C0027D1164B1A68184B1B689A4212D0134BD5
:10024C001B68154A1360124B1B68002B06D1134B0D
:10025C004FF4FA721A60FFF7A9FF12E00F4B00225D
:10026C001A600EE00D4B1B68013B0C4A13600B4BE4
:10027C001B68002B05D1094B4FF4FA721A60FFF77B
:10028C0095FF00BF80BD00BF0C00002018000020AF
:10029C000000002000100140240000205800002025
:1002AC0080B500AF234B5B68234A5360234B5B68DC
:1002BC00204A53604FF48041214801F09FFE0346D1
:1002CC001A461E4B5A601B4B5A681C4B5B689A4271
:1002DC002DD1184B5A68184B5B689A4227D1164B94
:1002EC005A68184B5B689A4212D0134B5B68154ADC
:1002FC005360124B5B68002B06D1134B4FF4FA7210
:10030C001A60FFF75FFF12E00F4B00221A600EE03D
:10031C000D4B1B68013B0C4A13600B4B1B68002BED
:10032C0005D1094B4FF4FA721A60FFF74BFF00BF6F
:10033C0080BD00BF0C000020180000200000002031
:10034C0000100140240000205800002080B500AFB0
:10035C00234B9B68234A9360234B9B68204A9360F2
:10036C004FF40041214801F049FE03461A461E4B4A
:10037C009A601B4B9A681C4B9B689A422DD1184B68
:10038C009A68184B9B689A4227D1164B9A68184B5F
:10039C009B689A4212D0134B9B68154A9360124B80
:1003AC009B68002B06D1134B4FF4FA721A60FFF7BF
:1003BC0015FF12E00F4B00221A600EE00D4B1B686C
:1003CC00013B0C4A13600B4B1B68002B05D1094BEE
:1003DC004FF4FA721A60FFF701FF00BF80BD00BF37
:1003EC000C0000201800002000000020001001402C
:1003FC00240000205800002080B500AF994B1B68EA
:10040C00013B072B00F2228101A252F823F000BF1E
:10041C003D04000859060008590600086D04000840
:10042C0059060008E904000865050008DF05000806
:10043C008C4B04221A608C4B1B680333642202FB26
:10044C0003F3184601F0BEF9884B1B68184600F000
:10045C00C3FE642001F0CAF9142001F0DBF9FEE0C0
:10046C00834B1B68012B0BD17E4B06221A60814BF0
:10047C001B680233642202FB03F3184601F0A2F955
:10048C007D4B1B68012B07D1784B1B68184600F07D
:10049C00A3FE642001F0AAF9784B1B68012B0AD14A
:1004AC00774B1B68184600F0ADFC0346744A13608A
:1004BC00142001F0AFF9FFF743FE0346012B40F087
:1004CC00C7800A2000F0B4FD664B0E221A600E2085
:1004DC0000F0AEFD192001F075F9B9E0FFF730FE20
:1004EC000346012B0BD10A2000F0A2FD5D4B0E221E
:1004FC001A600E2000F09CFD192001F063F95C4B92
:10050C001B68012B0BD1574B07221A60564B1B68EB
:10051C000333642202FB03F3184601F053F9564BE4
:10052C001B68012B07D1514B1B68184600F054FE79
:10053C00642001F05BF9514B1B68012B40F08A8061
:10054C004F4B1B68184600F05DFC03464C4A136089
:10055C00142001F05FF97DE0FFF7F2FD0346012B5B
:10056C000BD10A2000F064FD3E4B0E221A600E20C7
:10057C0000F05EFD192001F025F93D4B1B68012BA5
:10058C000BD1384B08221A603A4B1B680233642299
:10059C0002FB03F3184601F015F9374B1B68012BCE
:1005AC0007D1324B1B68184600F016FE642001F090
:1005BC001DF9324B1B68012B4ED1314B1B68184671
:1005CC0000F020FC03462E4A1360142001F022F99F
:1005DC0042E0FFF7B5FD0346012B0BD10A2000F0DA
:1005EC0027FD204B0E221A600E2000F021FD192051
:1005FC0001F0E8F81E4B1B68012B0BD1194B0422A0
:10060C001A60194B1B680333642202FB03F3184670
:10061C0001F0D8F8184B1B68012B07D1134B1B6842
:10062C00184600F0D9FD642001F0E0F8134B1B686C
:10063C00012B13D1124B1B68184600F0E3FB034649
:10064C000F4A1360142001F0E5F807E000BF06E044
:10065C0000BF04E000BF02E000BF00E000BF00BF2D
:10066C0080BD00BF680000208C00002080000020AE
:10067C009C00002090000020A4000020AC00002072
:10068C007C00002080B500AFAA4B1B68102B00F03B
:10069C00CC80102B00F345810E2B02D00F2B61D098
:1006AC003FE1A54B1B68012B05D10E2000F0C0FCCF
:1006BC00192001F087F8A14B1B68012B0CD1A04B22
:1006CC001A68A04B1B68134405330E21184600F022
:1006DC0003FF052001F08AF89B4B1B68012B0AD104
:1006EC009A4B1B68184600F08DFB0346974A136023
:1006FC00142001F08FF8FFF723FD0346012B08D1DE
:10070C008C4B0F221A608F4B00221A60192001F0BB
:10071C0059F8FFF727FD0346012B0BD1884B1A68BC
:10072C00884B1B6813445D2B04DC864B1B68013320
:10073C00844A1360FFF728FD0346012B40F0F38039
:10074C007F4B1A687F4B1B6813447D4A13607D4BAB
:10075C0000221A607A4B1A687D4B1B68D31A7D4AAB
:10076C001360E0E0744B1B68012B05D10F2000F0E7
:10077C005FFC192001F026F8704B1B68012B0CD183
:10078C00734B1A686F4B1B68134402330F211846C6
:10079C0000F0A2FE052001F029F86B4B1B68012B21
:1007AC000AD16A4B1B68184600F02CFB0346674ABB
:1007BC001360142001F02EF8FFF7C2FC0346012B46
:1007CC0008D15C4B10221A605E4B00221A60192073
:1007DC0000F0F8FFFFF7C6FC0346012B0BD15C4B76
:1007EC001A68584B1B681344602B04DC554B1B6870
:1007FC000133544A1360FFF7C7FC0346012B40F04A
:10080C009480534B1A684F4B1B681344504A136027
:10081C004F4B1B685A1D4F4B1B681344053B484AF2
:10082C001360484B00221A607FE0434B1B68012B7E
:10083C0005D1102000F0FCFB192000F0C3FF3F4B4A
:10084C001B68012B0CD1434B1A683E4B1B6813449D
:10085C0003331021184600F03FFE052000F0C6FFC0
:10086C00394B1B68012B0AD1384B1B68184600F01A
:10087C00C9FA0346354A1360142000F0CBFFFFF78A
:10088C005FFC0346012B22D12E4B00221A60324B07
:10089C0001221A60314B00221A600A2000F0C8FBBA
:1008AC00244B04221A602B4B1B680333642202FB7B
:1008BC0003F3184600F086FF274B1B68184600F020
:1008CC008BFC642000F092FF142000F0A3FFFFF7D4
:1008DC0049FC0346012B0BD11E4B1A68194B1B68A4
:1008EC0013445F2B04DC174B1B680133154A136050
:1008FC00FFF74AFC0346012B19D1164B1A68114B12
:10090C001B681344134A1360114B1B685A1D114B7F
:10091C001B681344053B0A4A13600A4B00221A60F9
:10092C0005E000BF04E000BF02E000BF00E000BF34
:10093C0000BF80BD680000209C000020A4000020A7
:10094C008800002094000020AC0000207C000020D7
:10095C00900000208C0000208000002084000020EB
:10096C0080B582B000AF78607B68013B072B69D8FB
:10097C0001A252F823F000BFA5090008510A000893
:10098C00510A0008BD090008510A0008E7090008CF
:10099C00070A0008310A000801224FF6FF712C48A3
:1009AC0001F043FB01224FF6FF712A4801F03DFB99
:1009BC0000222021264801F038FB01228021244806
:1009CC0001F033FB01222021224801F02EFB0022F2
:1009DC004021204801F029FB35E0002220211C4851
:1009EC0001F023FB012240211A4801F01EFB0022DA
:1009FC008021184801F019FB25E001222021144820
:100A0C0001F013FB00224021114801F00EFB0022E3
:100A1C002021104801F009FB012280210D4801F032
:100A2C0004FB10E001224021094801F0FEFA0022EB
:100A3C008021074801F0F9FA00222021054801F035
:100A4C00F4FA00E000BF00BF0837BD4680BD00BF10
:100A5C0000080140000C014080B582B000AF786006
:100A6C007B68092B00F2C88101A252F823F000BF69
:100A7C00A50A0008FB0A0008510B0008A70B000888
:100A8C00FD0B0008530C0008A90C0008FF0C000813
:100A9C00550D0008AB0D000800224FF40071D5482D
:100AAC0001F0C3FA00224FF48061D24801F0BDFA84
:100ABC0000224FF40061CF4801F0B7FA00224FF446
:100ACC008051CC4801F0B1FA00224FF40051C948D2
:100ADC0001F0ABFA00224FF48041C64801F0A5FAB0
:100AEC0001224FF40041C34801F09FFA85E1012235
:100AFC004FF40071BF4801F098FA00224FF4806166
:100B0C00BC4801F092FA00224FF40061B94801F0A0
:100B1C008CFA01224FF48051B64801F086FA01227A
:100B2C004FF40051B34801F080FA01224FF4804198
:100B3C00B04801F07AFA01224FF40041AD4801F0BF
:100B4C0074FA5AE100224FF40071AA4801F06DFAD0
:100B5C0000224FF48061A74801F067FA01224FF49C
:100B6C000061A44801F061FA00224FF48051A148C1
:100B7C0001F05BFA00224FF400519E4801F055FA47
:100B8C0001224FF480419B4801F04FFA00224FF4B0
:100B9C000041984801F049FA2FE100224FF400710E
:100BAC00944801F042FA00224FF48061914801F020
:100BBC003CFA00224FF400618E4801F036FA002214
:100BCC004FF480518B4801F030FA01224FF4005160
:100BDC00884801F02AFA01224FF48041854801F03F
:100BEC0024FA00224FF40041824801F01EFA04E17D
:100BFC0001224FF400717F4801F017FA00224FF4E4
:100C0C0080617C4801F011FA00224FF400617948B0
:100C1C0001F00BFA01224FF48051764801F005FAED
:100C2C0001224FF40051734801F0FFF900224FF4F8
:100C3C008041704801F0F9F900224FF400416D48F1
:100C4C0001F0F3F9D9E000224FF40071694801F08A
:100C5C00ECF901224FF48061664801F0E6F90022BC
:100C6C004FF40061634801F0E0F900224FF4805129
:100C7C00604801F0DAF901224FF400515D4801F0AF
:100C8C00D4F900224FF480415A4801F0CEF90022E9
:100C9C004FF40041574801F0C8F9AEE000224FF480
:100CAC000071544801F0C1F901224FF480615148A0
:100CBC0001F0BBF900224FF400614E4801F0B5F988
:100CCC0000224FF480514B4801F0AFF900224FF451
:100CDC000051484801F0A9F900224FF480414548E1
:100CEC0001F0A3F900224FF40041424801F09DF9B4
:100CFC0083E000224FF400713E4801F096F9002287
:100D0C004FF480613B4801F090F900224FF40061F0
:100D1C00384801F08AF901224FF48051354801F02E
:100D2C0084F901224FF40051324801F07EF901227E
:100D3C004FF480412F4801F078F901224FF4004123
:100D4C002C4801F072F958E000224FF40071294848
:100D5C0001F06BF900224FF48061264801F065F92F
:100D6C0000224FF40061234801F05FF900224FF498
:100D7C008051204801F059F900224FF400511D48D0
:100D8C0001F053F900224FF480411A4801F04DF95B
:100D9C0000224FF40041174801F047F92DE00022E2
:100DAC004FF40071134801F040F900224FF48061B8
:100DBC00104801F03AF900224FF400610D4801F09F
:100DCC0034F900224FF480510A4801F02EF9012227
:100DDC004FF40051074801F028F900224FF48041EC
:100DEC00044801F022F900224FF40041014801F0BF
:100DFC001CF902E00008014000BF00BF0837BD46E7
:100E0C0080BD00BF80B483B000AF78607B68032BDB
:100E1C0003D100237B607B6803E07B6801337B603C
:100E2C007B6818460C37BD4680BC704780B582B0D5
:100E3C0000AF78607B68032B72D801A252F823F0C4
:100E4C005D0E0008910E0008C50E0008F90E000892
:100E5C0000220121354801F0E8F801220221334833
:100E6C0001F0E3F801220421304801F0DEF8012200
:100E7C0008212E4801F0D9F82D4B1B681846FFF7B6
:100E8C00EBFD4EE001220121284801F0CEF80022B2
:100E9C000221264801F0C9F801220421234801F05F
:100EAC00C4F801220821214801F0BFF8204B5B68EF
:100EBC001846FFF7D1FD34E0012201211B4801F057
:100ECC00B4F801220221194801F0AFF800220421E4
:100EDC00164801F0AAF801220821144801F0A5F8DF
:100EEC00134B9B681846FFF7B7FD1AE0012201214E
:100EFC000E4801F09AF8012202210C4801F095F8F5
:100F0C0001220421094801F090F800220821074829
:100F1C0001F08BF8064BDB681846FFF79DFD00E0EF
:100F2C0000BF00BF0837BD4680BD00BF000C0140AC
:100F3C006C00002080B500AF012220210E4801F08A
:100F4C0074F8012240210C4801F06FF80122802135
:100F5C00094801F06AF801222021084801F065F8DF
:100F6C0001224021054801F060F80122802103484C
:100F7C0001F05BF800BF80BD00080140000C01408F
:100F8C0080B582B000AF78607B68102B33D07B6863
:100F9C00102B45DC7B680E2B03D07B680F2B15D0F8
:100FAC003EE001224021204801F03FF8012280213F
:100FBC001D4801F03AF8012240211C4801F035F897
:100FCC0001228021194801F030F829E0012220216A
:100FDC00154801F02AF801224021134801F025F8A8
:100FEC0001222021114801F020F8012240210F4854
:100FFC0001F01BF814E0012220210B4801F015F838
:10100C0001228021084801F010F801222021074814
:10101C0001F00BF801228021044801F006F800BF12
:10102C0000BF0837BD4680BD00080140000C0140E0
:10103C0080B582B000AF78607B680A3B062B20D865
:10104C0001A252F823F000BF711000088F100008A5
:10105C008F1000088F100008771000087F10000810
:10106C0087100008FFF766FF0BE00E2000F00EF86B
:10107C0007E00F2000F00AF803E0102000F006F85B
:10108C0000BF00BF0837BD4680BD00BF80B582B031
:10109C0000AF78607B68102B21D07B68102B2ADC8A
:1010AC007B680E2B03D07B680F2B0CD023E00E201B
:1010BC00FFF766FF2021124800F0CFFF20211148D6
:1010CC0000F0CBFF17E00F20FFF75AFF80210C48F0
:1010DC0000F0C3FF80210B4800F0BFFF0BE0102095
:1010EC00FFF74EFF4021064800F0B7FF40210548AE
:1010FC0000F0B3FF00BF00BF0837BD4680BD00BF86
:10110C0000080140000C014080B400AF2E4B1B685E
:10111C00002B03D12C4B01221A6051E02B4B1B6886
:10112C00DA1C2B4B1B68D31A012B0AD1264B1B68DC
:10113C00012B06D1244B02221A60254B00221A6087
:10114C003EE0244B1B689A1C214B1B68D31A012BC5
:10115C000AD11D4B1B68022B06D11B4B03221A60B4
:10116C001B4B00221A602BE0184B1B68DA1C184B27
:10117C001B68D31A012B0AD1134B1B68032B06D106
:10118C00114B04221A60124B00221A6018E0114B0A
:10119C001B689A1C0E4B1B68D31A012B0AD10A4BE5
:1011AC001B68042B06D1084B01221A60084B002245
:1011BC001A6005E0064B1B680133054A1360FFE714
:1011CC0000BFBD4680BC7047800000208C00002012
:1011DC00840000209000002080B582B000AF7860C1
:1011EC007B68042B00F2668101A252F823F000BF49
:1011FC00111200089912000823130008AD130008FF
:10120C0037140008AE4B1B685A1DAE4B1B68D31A23
:10121C00AD4A82FB03129210DB17D31AAB4A136050
:10122C00A74B1B685A1DA74B1B68D11AA64B83FBF7
:10123C0001239A10CB17D21A13469B0013445B0060
:10124C00CA1AA24B5A60A24B1B68DA1C9D4B1B6836
:10125C00D31A9D4A82FB03129210DB17D31A9B4AB6
:10126C0093609B4B1B68DA1C964B1B68D11A964BF0
:10127C0083FB01239A10CB17D21A13469B001344FD
:10128C005B00CA1A914BDA60FFF73EFF8C4B1B6870
:10129C005A1D8C4B1B68D31A8B4A82FB031292107B
:1012AC00DB17D31A894A1360854B1B685A1D854B73
:1012BC001B68D11A844B83FB01239A10CB17D21ACB
:1012CC0013469B0013445B00CA1A804B5A60804B38
:1012DC001B68DA1C7B4B1B68D31A7B4A82FB0312FC
:1012EC009210DB17D31A794A9360794B1B68DA1C7E
:1012FC00744B1B68D11A744B83FB01239A10CB17C8
:10130C00D21A13469B0013445B00CA1A6F4BDA6067
:10131C00FFF7FAFECFE06F4B1B689A1C694B1B68FA
:10132C00D31A694A82FB03129210DB17D31A674A4D
:10133C001360684B1B689A1C624B1B68D11A624B7A
:10134C0083FB01239A10CB17D21A13469B0013442C
:10135C005B00CA1A5D4B5A605E4B1B689A1C594B5A
:10136C001B68D31A584A82FB03129210DB17D31A4C
:10137C00564A9360574B1B689A1C524B1B68D11AE8
:10138C00514B83FB01239A10CB17D21A13469B00A7
:10139C0013445B00CA1A4D4BDA60FFF7B5FE8AE0C6
:1013AC004B4B1B68DA1C474B1B68D31A464A82FB13
:1013BC0003129210DB17D31A444A1360444B1B6878
:1013CC00DA1C404B1B68D11A3F4B83FB01239A104C
:1013DC00CB17D21A13469B0013445B00CA1A3B4B23
:1013EC005A60374B1B685A1D364B1B68D31A364A4A
:1013FC0082FB03129210DB17D31A344A9360304BE2
:10140C001B685A1D2F4B1B68D11A2F4B83FB0123D2
:10141C009A10CB17D21A13469B0013445B00CA1ABE
:10142C002A4BDA60FFF770FE45E02A4B1B689A1CCA
:10143C00244B1B68D31A244A82FB03129210DB172D
:10144C00D31A224A1360234B1B689A1C1D4B1B6832
:10145C00D11A1D4B83FB01239A10CB17D21A1346BA
:10146C009B0013445B00CA1A184B5A60194B1B683B
:10147C009A1C144B1B68D31A134A82FB031292104A
:10148C00DB17D31A114A9360124B1B689A1C0D4B35
:10149C001B68D11A0C4B83FB01239A10CB17D21A61
:1014AC0013469B0013445B00CA1A084BDA60FFF723
:1014BC002BFE00E000BF00BF0837BD4680BD00BF5B
:1014CC008800002084000020676666666C0000209F
:1014DC008C0000209000002080B483B000AF7860B6
:1014EC0039607B681B4A82FB03129210DB17D31AFC
:1014FC00194A13607968174B83FB01239A10CB1799
:10150C00D21A13469B0013445B00CA1A124B5A6042
:10151C00114B00229A603B68102B11D03B68102BAA
:10152C0012DC3B680E2B03D03B680F2B04D00BE076
:10153C00094B0222DA6008E0074B0322DA6004E070
:10154C00054B0422DA6000E000BF00BF0C37BD463B
:10155C0080BC7047676666666C00002080B500AF83
:10156C0000F062FA00F020F800F0A6F800F058F84D
:10157C000A4801F0B7F90A4B01221A60084B1B68A4
:10158C001846FFF7EDF9074B1B681846FFF74EFCA2
:10159C00FEF732FFFFF776F8F0E700BFB00000204F
:1015AC00680000207C00002080B590B000AF07F1EF
:1015BC00180328220021184601F050FD3B1D002283
:1015CC001A605A609A60DA601A610223BB610123C7
:1015DC00BB621023FB6200237B6307F118031846E0
:1015EC0000F054FD0346002B01D000F0E5F80F236A
:1015FC007B600023BB600023FB6000233B61002366
:10160C007B613B1D0021184600F0C0FF0346002BF8
:10161C0001D000F0D1F800BF4037BD4680BD0000BE
:10162C0080B586B000AF07F1080300221A605A603B
:10163C009A60DA603B4600221A605A601D4B4FF0EC
:10164C0080421A601B4B41F63F725A60194B0022C4
:10165C009A60184B0922DA60164B00221A61154B5E
:10166C0000229A61134801F0EDF80346002B01D0DB
:10167C0000F0A2F84FF48053BB6007F10803194641
:10168C000C4801F083FA0346002B01D000F094F8CB
:10169C0000233B6000237B603B461946054801F064
:1016AC004FFC0346002B01D000F086F800BF183722
:1016BC00BD4680BDB000002080B588B000AF07F1FA
:1016CC00100300221A605A609A60DA602E4B9B69F4
:1016DC002D4A43F0100393612B4B9B6903F01003CD
:1016EC00FB60FB68284B9B69274A43F0040393611A
:1016FC00254B9B6903F00403BB60BB68224B9B69C1
:10170C00214A43F0080393611F4B9B6903F00803C4
:10171C007B607B6800224FF6E4611C4800F085FC7E
:10172C000022EF211A4800F080FC4FF460433B612B
:10173C0000237B610123BB6107F110031946154897
:10174C0000F0E2FA4FF6E4633B6101237B61002376
:10175C00BB610223FB6107F1100319460B4800F033
:10176C00D3FAEF233B6101237B610023BB6102238E
:10177C00FB6107F110031946054800F0C5FA00BFDC
:10178C002037BD4680BD00BF00100240000801405C
:10179C00000C01400010014080B582B000AF7860B1
:1017AC0000F04CF8FEF726FDFEF77AFDFEF7CEFDB5
:1017BC0000BF0837BD4680BD80B400AF72B600BF15
:1017CC00FEE7000080B483B000AF7860054A7B6808
:1017DC001360054B00221A6000BF0C37BD4680BC5D
:1017EC00704700BF980000209C00002080B483B09C
:1017FC0000AF7860054A7B681360054B00221A60C5
:10180C0000BF0C37BD4680BC704700BFA000002055
:10181C00A400002080B483B000AF7860054A7B68D8
:10182C001360054B00221A6000BF0C37BD4680BC0C
:10183C00704700BFA8000020AC00002080B400AFAF
:10184C00194B1B68002B0BDD174B1B68013B164A11
:10185C001360154B1B68002B02DC144B01221A6021
:10186C00134B1B68002B0BDD114B1B68013B104A03
:10187C0013600F4B1B68002B02DC0E4B01221A600D
:10188C000D4B1B68002B0BDD0B4B1B68013B0A4AF5
:10189C001360094B1B68002B02DC084B01221A60F9
:1018AC0000BFBD4680BC7047980000209C00002003
:1018BC00A0000020A4000020A8000020AC00002004
:1018CC0080B485B000AF154B9B69144A43F00103FB
:1018DC009361124B9B6903F00103BB60BB680F4B18
:1018EC00DB690E4A43F08053D3610C4BDB6903F088
:1018FC0080537B607B680A4B5B68FB60FB6823F062
:10190C00E063FB60FB6843F08063FB60044AFB68A8
:10191C00536000BF1437BD4680BC704700100240B6
:10192C000000014080B584B000AF78607B681B6814
:10193C00B3F1804F13D10C4BDB690B4A43F001031D
:10194C00D361094BDB6903F00103FB60FB680022E8
:10195C0000211C2000F0A1F91C2000F0BAF900BFF6
:10196C001037BD4680BD00BF0010024080B400AFF0
:10197C00FEE780B400AFFEE780B400AFFEE780B4B2
:10198C0000AFFEE780B400AFFEE780B400AF00BF4D
:10199C00BD4680BC704780B400AF00BFBD4680BC64
:1019AC00704780B400AF00BFBD4680BC704780B5A7
:1019BC0000AF00F07FF800BF80BD000080B500AF25
:1019CC00024800F0DBFF00BF80BD00BFB00000206C
:1019DC0080B400AF00BFBD4680BC7047FFF7F8FF76
:1019EC000B480C490C4A002302E0D458C450043371
:1019FC00C4188C42F9D3094A094C002301E0136046
:101A0C000432A242FBD301F005FBFFF7A7FD7047A0
:101A1C00000000203C000020BC3000083C000020EE
:101A2C00FC000020FEE7000080B500AF084B1B68EF
:101A3C00074A43F010031360032000F023F90F2032
:101A4C0000F008F8FFF73CFF0023184680BD00BFEC
:101A5C000020024080B582B000AF7860124B1A684B
:101A6C00124B1B7819464FF47A73B3FBF1F3B2FBAC
:101A7C00F3F3184600F03BF90346002B01D0012389
:101A8C000EE07B680F2B0AD8002279684FF0FF30EC
:101A9C0000F003F9064A7B681360002300E0012381
:101AAC0018460837BD4680BD3000002038000020A5
:101ABC003400002080B400AF054B1B781A46054B50
:101ACC001B681344034A136000BFBD4680BC7047BB
:101ADC0038000020F800002080B400AF024B1B68D7
:101AEC001846BD4680BC7047F800002080B485B015
:101AFC0000AF78607B6803F00703FB600C4BDB687E
:101B0C00BB60BA684FF6FF031340BB60FB681A0258
:101B1C00BB68134343F0BF6343F40033BB60044A18
:101B2C00BB68D36000BF1437BD4680BC704700BF94
:101B3C0000ED00E080B400AF044BDB681B0A03F03F
:101B4C0007031846BD4680BC704700BF00ED00E09F
:101B5C0080B483B000AF0346FB7197F90730002BBC
:101B6C000BDBFB7903F01F02064997F907305B0981
:101B7C00012000FA02F241F8232000BF0C37BD46C9
:101B8C0080BC704700E100E080B483B000AF034636
:101B9C003960FB7197F90730002B0ADB3B68DAB22E
:101BAC000C4997F907301201D2B20B4483F8002389
:101BBC000AE03B68DAB20849FB7903F00F03043BF7
:101BCC001201D2B20B441A7600BF0C37BD4680BC52
:101BDC00704700BF00E100E000ED00E080B489B088
:101BEC0000AFF860B9607A60FB6803F00703FB6133
:101BFC00FB69C3F10703042B28BF0423BB61FB69FA
:101C0C000433062B02D9FB69033B00E000237B6104
:101C1C004FF0FF32BB6902FA03F3DA43BB681A4098
:101C2C007B699A404FF0FF317B6901FA03F3D9438A
:101C3C007B680B40134318462437BD4680BC704765
:101C4C0080B582B000AF78607B68013BB3F1807FD8
:101C5C0001D301230FE00A4A7B68013B53600F213B
:101C6C004FF0FF30FFF790FF054B00229A60044BBA
:101C7C0007221A60002318460837BD4680BD00BFF6
:101C8C0010E000E080B582B000AF78607868FFF7B4
:101C9C002DFF00BF0837BD4680BD80B586B000AFB4
:101CAC000346B9607A60FB7300237B61FFF742FF48
:101CBC0078617A68B9687869FFF790FF024697F9FE
:101CCC000F3011461846FFF75FFF00BF1837BD46AF
:101CDC0080BD80B582B000AF0346FB7197F9073029
:101CEC001846FFF735FF00BF0837BD4680BD80B5ED
:101CFC0082B000AF78607868FFF7A2FF0346184601
:101D0C000837BD4680BD000080B48BB000AF786052
:101D1C00396000237B6200233B6248E101227B6A2D
:101D2C0002FA03F3FB613B681B68FA691340BB6161
:101D3C00BA69FB699A4240F037813B685B68A34AF9
:101D4C0093425ED0A14A934275D8A14A934258D08F
:101D5C009F4A93426FD89F4A934252D09D4A9342D6
:101D6C0069D89D4A93424CD09B4A934263D89B4A74
:101D7C00934246D0994A93425DD8122B2AD8122B03
:101D8C0059D801A252F823F00F1E0008E91D0008D3
:101D9C00FB1D00083D1E0008431E0008431E0008E2
:101DAC00431E0008431E0008431E0008431E000883
:101DBC00431E0008431E0008431E0008431E000873
:101DCC00431E0008431E0008431E0008F11D0008B6
:101DDC00051E0008824A934213D02CE03B68DB6856
:101DEC003B6229E03B68DB6804333B6224E03B68E0
:101DFC00DB6808333B621FE03B68DB680C333B62FB
:101E0C001AE03B689B68002B02D104233B6213E071
:101E1C003B689B68012B05D108233B627B68FA6900
:101E2C001A6109E008233B627B68FA695A6103E096
:101E3C0000233B6200E000BFBB69FF2B01D87B682D
:101E4C0001E07B6804337B61BB69FF2B02D87B6AA2
:101E5C009B0002E07B6A083B9B003B617B691A6834
:101E6C000F213B6901FA03F3DB431A40396A3B69E2
:101E7C0001FA03F31A437B691A603B685B6803F051
:101E8C008053002B00F09080564B9B69554A43F0D1
:101E9C0001039361534B9B6903F00103BB60BB6867
:101EAC00514A7B6A9B08023352F82330FB607B6AF1
:101EBC0003F003039B000F2202FA03F3DB43FA68DF
:101ECC001340FB607B68494A93420DD07B68484ABB
:101EDC00934207D07B68474A934201D1022304E026
:101EEC00032302E0012300E000237A6A02F00302DC
:101EFC0092009340FA681343FB603B497B6A9B0852
:101F0C000233FA6841F823203B685B6803F48013C2
:101F1C00002B06D0384B9A683749BB6913438B604A
:101F2C0006E0354B9A68BB69DB43334913408B6041
:101F3C003B685B6803F40013002B06D02E4BDA6869
:101F4C002D49BB691343CB6006E02B4BDA68BB69A8
:101F5C00DB4329491340CB603B685B6803F40033D7
:101F6C00002B06D0244B5A682349BB6913434B60A2
:101F7C0006E0214B5A68BB69DB431F4913404B6099
:101F8C003B685B6803F48033002B06D01A4B1A684D
:101F9C001949BB6913430B6006E0174B1A68BB6900
:101FAC00DB43154913400B607B6A01337B623B6852
:101FBC001A687B6A22FA03F3002B7FF4AFAE00BFE2
:101FCC0000BF2C37BD4680BC704700BF00003210EC
:101FDC00000031100000221000002110000012102F
:101FEC0000001110001002400000014000080140E8
:101FFC00000C0140001001400004014080B485B089
:10200C0000AF78600B467B807B689A687B881340B6
:10201C00002B02D00123FB7301E00023FB73FB7B3D
:10202C0018461437BD4680BC704780B483B000AFEF
:10203C0078600B467B8013467B707B78002B03D03B
:10204C007A887B681A6103E07B881A047B681A61C2
:10205C0000BF0C37BD4680BC704780B485B000AF64
:10206C0078600B467B807B68DB68FB607A88FB685A
:10207C0013401A04FB68D9437B880B401A437B68D6
:10208C001A6100BF1437BD4680BC704780B586B05E
:10209C0000AF78607B68002B01D101236CE27B6878
:1020AC001B6803F00103002B00F08780924B5B68E8
:1020BC0003F00C03042B0CD08F4B5B6803F00C0368
:1020CC00082B12D18C4B5B6803F48033B3F5803F43
:1020DC000BD1894B1B6803F40033002B6CD07B684D
:1020EC005B68002B68D1012346E27B685B68B3F523
:1020FC00803F06D1804B1B687F4A43F480331360CA
:10210C002EE07B685B68002B0CD17B4B1B687A4AFA
:10211C0023F480331360784B1B68774A23F48023B5
:10212C0013601DE07B685B68B3F5A02F0CD1724B7C
:10213C001B68714A43F4802313606F4B1B686E4A13
:10214C0043F4803313600BE06B4B1B686A4A23F437
:10215C0080331360684B1B68674A23F48023136039
:10216C007B685B68002B13D0FFF7B6FC386108E086
:10217C00FFF7B2FC02463B69D31A642B01D9032347
:10218C00FAE15D4B1B6803F40033002BF0D014E034
:10219C00FFF7A2FC386108E0FFF79EFC02463B69A2
:1021AC00D31A642B01D90323E6E1534B1B6803F4C8
:1021BC000033002BF0D100E000BF7B681B6803F0FC
:1021CC000203002B63D04C4B5B6803F00C03002B19
:1021DC000BD0494B5B6803F00C03082B1CD1464B0E
:1021EC005B6803F48033002B16D1434B1B6803F060
:1021FC000203002B05D07B681B69012B01D0012346
:10220C00BAE13D4B1B6823F0F8027B685B69DB008D
:10221C00394913430B603AE07B681B69002B20D0D3
:10222C00364B01221A60FFF757FC386108E0FFF7C4
:10223C0053FC02463B69D31A022B01D903239BE1C1
:10224C002D4B1B6803F00203002BF0D02A4B1B68AC
:10225C0023F0F8027B685B69DB00274913430B60B2
:10226C0015E0264B00221A60FFF736FC386108E0B7
:10227C00FFF732FC02463B69D31A022B01D9032328
:10228C007AE11D4B1B6803F00203002BF0D17B6835
:10229C001B6803F00803002B3AD07B689B69002B6A
:1022AC0019D0174B01221A60FFF716FC386108E0B1
:1022BC00FFF712FC02463B69D31A022B01D9032308
:1022CC005AE10D4B5B6A03F00203002BF0D00120A6
:1022DC0000F09AFA1CE00A4B00221A60FFF7FCFB94
:1022EC0038610FE0FFF7F8FB02463B69D31A022B6B
:1022FC0008D9032340E100BF001002400000424215
:10230C00800442429E4B5B6A03F00203002BE9D12E
:10231C007B681B6803F00403002B00F0A6800023ED
:10232C00FB75974BDB6903F08053002B0DD1944B5D
:10233C00DB69934A43F08053D361914BDB6903F023
:10234C008053BB60BB680123FB758E4B1B6803F489
:10235C008073002B18D18B4B1B688A4A43F4807313
:10236C001360FFF7B9FB386108E0FFF7B5FB0246D5
:10237C003B69D31A642B01D90323FDE0814B1B6805
:10238C0003F48073002BF0D07B68DB68012B06D143
:10239C007B4B1B6A7A4A43F0010313622DE07B6886
:1023AC00DB68002B0CD1764B1B6A754A23F00103BA
:1023BC001362734B1B6A724A23F0040313621CE012
:1023CC007B68DB68052B0CD16D4B1B6A6C4A43F0A8
:1023DC00040313626A4B1B6A694A43F001031362DC
:1023EC000BE0674B1B6A664A23F001031362644BD4
:1023FC001B6A634A23F0040313627B68DB68002BBF
:10240C0015D0FFF769FB38610AE0FFF765FB024660
:10241C003B69D31A41F28832934201D90323ABE0D2
:10242C00574B1B6A03F00203002BEED014E0FFF7AE
:10243C0053FB38610AE0FFF74FFB02463B69D31AA6
:10244C0041F28832934201D9032395E04C4B1B6A2D
:10245C0003F00203002BEED1FB7D012B05D1484B81
:10246C00DB69474A23F08053D3617B68DB69002B1F
:10247C0000F08180424B5B6803F00C03082B61D0A9
:10248C007B68DB69022B46D13F4B00221A60FFF7B9
:10249C0023FB386108E0FFF71FFB02463B69D31AA8
:1024AC00022B01D9032367E0354B1B6803F0007343
:1024BC00002BF0D17B681B6AB3F5803F08D1304B01
:1024CC005B6823F400327B689B682D4913434B6097
:1024DC002B4B5B6823F474127B68196A7B685B6A0C
:1024EC000B43274913434B60274B01221A60FFF71C
:1024FC00F3FA386108E0FFF7EFFA02463B69D31AAA
:10250C00022B01D9032337E01D4B1B6803F000732A
:10251C00002BF0D02FE01C4B00221A60FFF7DCFAE6
:10252C00386108E0FFF7D8FA02463B69D31A022B50
:10253C0001D9032320E0124B1B6803F00073002B1E
:10254C00F0D118E07B68DB69012B01D1012313E08A
:10255C000B4B5B68FB60FB6803F480327B681B6A87
:10256C009A4206D1FB6803F470127B685B6A9A424C
:10257C0001D0012300E0002318461837BD4680BD6A
:10258C0000100240007000406000424280B584B0F0
:10259C0000AF786039607B68002B01D10123D0E05B
:1025AC006A4B1B6803F007033A689A4210D9674BD1
:1025BC001B6823F0070265493B6813430B60634BB0
:1025CC001B6803F007033A689A4201D00123B8E074
:1025DC007B681B6803F00203002B20D07B681B6810
:1025EC0003F00403002B05D0594B5B68584A43F4A5
:1025FC00E06353607B681B6803F00803002B05D075
:10260C00534B5B68524A43F460535360504B5B68C6
:10261C0023F0F0027B689B684D4913434B607B6849
:10262C001B6803F00103002B40D07B685B68012B17
:10263C0007D1474B1B6803F40033002B15D1012342
:10264C007FE07B685B68022B07D1414B1B6803F072
:10265C000073002B09D1012373E03D4B1B6803F081
:10266C000203002B01D101236BE0394B5B6823F093
:10267C0003027B685B68364913434B60FFF72CFA07
:10268C00F8600AE0FFF728FA0246FB68D31A41F219
:10269C008832934201D9032353E02D4B5B6803F03E
:1026AC000C027B685B689B009A42EBD1274B1B6842
:1026BC0003F007033A689A4210D2244B1B6823F0AC
:1026CC00070222493B6813430B60204B1B6803F045
:1026DC0007033A689A4201D0012332E07B681B68F9
:1026EC0003F00403002B08D0194B5B6823F4E06261
:1026FC007B68DB68164913434B607B681B6803F0EF
:10270C000803002B09D0124B5B6823F460527B68E2
:10271C001B69DB000E4913434B6000F021F80246A5
:10272C000B4B5B681B0903F00F030A49CB5C22FAC5
:10273C0003F3094A1360094B1B681846FFF78AF923
:10274C00002318461037BD4680BD00BF0020024054
:10275C0000100240903000083000002034000020AF
:10276C0080B487B000AF0023FB600023BB60002364
:10277C007B6100237B6000233B611E4B5B68FB602D
:10278C00FB6803F00C03042B02D0082B03D027E0CA
:10279C00194B3B6127E0FB689B0C03F00F03174AB6
:1027AC00D35C7B60FB6803F48033002B10D0114B9F
:1027BC005B685B0C03F00103114AD35CBB607B6864
:1027CC000D4A02FB03F2BB68B2FBF3F37B6104E03E
:1027DC007B680C4A02FB03F37B617B693B6102E083
:1027EC00054B3B6100BF3B6918461C37BD4680BC9E
:1027FC00704700BF0010024000127A00A0300008A1
:10280C00B030000800093D0080B485B000AF78609E
:10281C000A4B1B680A4AA2FB03235B0A7A6802FB79
:10282C0003F3FB6000BFFB685A1EFA60002BF9D162
:10283C0000BF00BF1437BD4680BC7047300000207D
:10284C00D34D621080B582B000AF78607B68002BEE
:10285C0001D1012341E07B6893F83D30DBB2002BC2
:10286C0006D17B68002283F83C207868FFF75AF881
:10287C007B68022283F83D207B681A687B680433EE
:10288C001946104600F06EFA7B68012283F8462048
:10289C007B68012283F83E207B68012283F83F206D
:1028AC007B68012283F840207B68012283F8412059
:1028BC007B68012283F842207B68012283F8432045
:1028CC007B68012283F844207B68012283F8452031
:1028DC007B68012283F83D20002318460837BD464B
:1028EC0080BD000080B485B000AF78607B6893F841
:1028FC003D30DBB2012B01D0012335E07B68022295
:10290C0083F83D207B681B68DA687B681B6842F0A3
:10291C000102DA607B681B68164A934209D07B6817
:10292C001B68B3F1804F04D07B681B68124A93423A
:10293C0011D17B681B689B6803F00703FB60FB6885
:10294C00062B10D07B681B681A687B681B6842F0EA
:10295C0001021A6007E07B681B681A687B681B68B9
:10296C0042F001021A60002318461437BD4680BCA1
:10297C00704700BF002C01400004004080B582B0BD
:10298C0000AF78607B681B681B6903F00203022BA5
:10299C0022D17B681B68DB6803F00203022B1BD17E
:1029AC007B681B686FF002021A617B6801221A7740
:1029BC007B681B689B6903F00303002B03D07868CA
:1029CC0000F0B4F905E0786800F0A7F9786800F039
:1029DC00B6F97B6800221A777B681B681B6903F0C9
:1029EC000403042B22D17B681B68DB6803F004030F
:1029FC00042B1BD17B681B686FF004021A617B6887
:102A0C0002221A777B681B689B6903F44073002BC6
:102A1C0003D0786800F08AF905E0786800F07DF959
:102A2C00786800F08CF97B6800221A777B681B6849
:102A3C001B6903F00803082B22D17B681B68DB6839
:102A4C0003F00803082B1BD17B681B686FF008028E
:102A5C001A617B6804221A777B681B68DB6903F0B8
:102A6C000303002B03D0786800F060F905E0786868
:102A7C0000F053F9786800F062F97B6800221A774D
:102A8C007B681B681B6903F01003102B22D17B6839
:102A9C001B68DB6803F01003102B1BD17B681B68D1
:102AAC006FF010021A617B6808221A777B681B682A
:102ABC00DB6903F44073002B03D0786800F036F91F
:102ACC0005E0786800F029F9786800F038F97B683F
:102ADC0000221A777B681B681B6903F00103012B2A
:102AEC000ED17B681B68DB6803F00103012B07D157
:102AFC007B681B686FF001021A617868FEF74CFE68
:102B0C007B681B681B6903F08003802B0ED17B68EC
:102B1C001B68DB6803F08003802B07D17B681B6884
:102B2C006FF080021A61786800F06BFA7B681B68A2
:102B3C001B6903F04003402B0ED17B681B68DB68DC
:102B4C0003F04003402B07D17B681B686FF04002F9
:102B5C001A61786800F0FCF87B681B681B6903F04D
:102B6C002003202B0ED17B681B68DB6803F020034D
:102B7C00202B07D17B681B686FF020021A617868E4
:102B8C0000F036FA00BF0837BD4680BD80B584B072
:102B9C0000AF786039600023FB737B6893F83C309E
:102BAC00012B01D10223B4E07B68012283F83C2085
:102BBC007B68022283F83D207B681B689B68BB60A6
:102BCC00BB6823F07703BB60BB6823F47F43BB6017
:102BDC007B681B68BA689A603B681B68B3F5005F3A
:102BEC003ED0B3F5005F00F28780B3F5805F00F054
:102BFC008680B3F5805F7FD8702B1AD0702B7BD872
:102C0C00602B50D0602B77D8502B3CD0502B73D8E6
:102C1C00402B58D0402B6FD8302B64D0302B6BD836
:102C2C00202B60D0202B67D8002B5CD0102B5AD0D7
:102C3C0062E07B6818683B6899683B685A683B6837
:102C4C00DB6800F05EF97B681B689B68BB60BB6847
:102C5C0043F07703BB607B681B68BA689A604FE0EF
:102C6C007B6818683B6899683B685A683B68DB6806
:102C7C0000F047F97B681B689A687B681B6842F414
:102C8C0080429A603CE07B6818683B6859683B68F6
:102C9C00DB681A4600F0BEF87B681B6850211846AA
:102CAC0000F015F92CE07B6818683B6859683B68A4
:102CBC00DB681A4600F0DCF87B681B68602118465C
:102CCC0000F005F91CE07B6818683B6859683B68A4
:102CDC00DB681A4600F09EF87B681B68402118469A
:102CEC0000F0F5F80CE07B681A683B681B68194625
:102CFC00104600F0ECF803E00123FB7300E000BF8A
:102D0C007B68012283F83D207B68002283F83C20FD
:102D1C00FB7B18461037BD4680BD80B483B000AF36
:102D2C00786000BF0C37BD4680BC704780B483B060
:102D3C0000AF786000BF0C37BD4680BC704780B4D4
:102D4C0083B000AF786000BF0C37BD4680BC7047C5
:102D5C0080B483B000AF786000BF0C37BD4680BC38
:102D6C007047000080B485B000AF786039607B6834
:102D7C001B68FB607B68254A934207D07B68B3F1E4
:102D8C00804F03D07B68224A934208D1FB6823F022
:102D9C007003FB603B685B68FA681343FB607B68FD
:102DAC001A4A934207D07B68B3F1804F03D07B68FB
:102DBC00174A934208D1FB6823F44073FB603B68CD
:102DCC00DB68FA681343FB60FB6823F080023B6806
:102DDC005B691343FB607B68FA681A603B689A680E
:102DEC007B68DA623B681A687B689A627B68074A80
:102DFC00934203D13B681A697B681A637B68012292
:102E0C005A6100BF1437BD4680BC7047002C01408E
:102E1C000004004080B487B000AFF860B9607A60FD
:102E2C00FB681B6A7B61FB681B6A23F00102FB6871
:102E3C001A62FB689B693B613B6923F0F0033B61C1
:102E4C007B681B013A6913433B617B6923F00A03DE
:102E5C007B617A69BB6813437B61FB683A699A6151
:102E6C00FB687A691A6200BF1C37BD4680BC70478C
:102E7C0080B487B000AFF860B9607A60FB681B6AF9
:102E8C007B61FB681B6A23F01002FB681A62FB680B
:102E9C009B693B613B6923F470433B617B681B037B
:102EAC003A6913433B617B6923F0A0037B61BB68E8
:102EBC001B017A6913437B61FB683A699A61FB6871
:102ECC007A691A6200BF1C37BD4680BC704780B45B
:102EDC0085B000AF786039607B689B68FB60FB68ED
:102EEC0023F07003FB603A68FB68134343F007035D
:102EFC00FB607B68FA689A6000BF1437BD4680BCE3
:102F0C00704780B487B000AFF860B9607A603B60FE
:102F1C00FB689B687B617B6923F47F437B613B6827
:102F2C001A027B681A43BB6813437A6913437B61AB
:102F3C00FB687A699A6000BF1C37BD4680BC70473D
:102F4C0080B485B000AF786039607B6893F83C3012
:102F5C00012B01D1022341E07B68012283F83C2044
:102F6C007B68022283F83D207B681B685B68FB60F2
:102F7C007B681B689B68BB60FB6823F07003FB607D
:102F8C003B681B68FA681343FB607B681B68FA6834
:102F9C005A607B681B68144A934209D07B681B6893
:102FAC00B3F1804F04D07B681B68104A93420CD15C
:102FBC00BB6823F08003BB603B685B68BA68134353
:102FCC00BB607B681B68BA689A607B68012283F8D7
:102FDC003D207B68002283F83C20002318461437E0
:102FEC00BD4680BC704700BF002C0140000400406F
:102FFC0080B483B000AF786000BF0C37BD4680BC96
:10300C00704780B483B000AF786000BF0C37BD460A
:10301C0080BC704770B500260C4D0D4C641BA41081
:10302C00A64209D100F022F800260A4D0A4C641B76
:10303C00A410A64205D170BD55F8043B9847013643
:10304C00EEE755F8043B98470136F2E7B430000838
:10305C00B4300008B4300008B8300008034602440D
:10306C00934200D1704703F8011BF9E7F8B500BF94
:10307C00F8BC08BC9E467047F8B500BFF8BC08BC4D
:04308C009E467047A5
:103090000000000000000000010203040607080908
:1030A00002030405060708090A0B0C0D0E0F101089
:0430B0000102000019
:0430B40031010008DE
:0430B8000D010008FE
:1030BC000100000001000000010000000100000000
:1030CC0001000000010000000100000001000000F0
:1030DC0001000000010000000100000001000000E0
:0C30EC000024F4001000000001000000AF
:04000005080019E9ED
:00000001FF
